{
  "_format": "hh-sol-artifact-1",
  "contractName": "AaveV2StablecoinCellar",
  "sourceName": "contracts/AaveV2StablecoinCellar.sol",
  "abi": [
    {
      "inputs": [
        {
          "internalType": "contract ERC20",
          "name": "_asset",
          "type": "address"
        },
        {
          "internalType": "uint256",
          "name": "_liquidityLimit",
          "type": "uint256"
        },
        {
          "internalType": "uint256",
          "name": "_depositLimit",
          "type": "uint256"
        },
        {
          "internalType": "contract ICurveSwaps",
          "name": "_curveRegistryExchange",
          "type": "address"
        },
        {
          "internalType": "contract ISushiSwapRouter",
          "name": "_sushiswapRouter",
          "type": "address"
        },
        {
          "internalType": "contract ILendingPool",
          "name": "_lendingPool",
          "type": "address"
        },
        {
          "internalType": "contract IAaveIncentivesController",
          "name": "_incentivesController",
          "type": "address"
        },
        {
          "internalType": "contract IGravity",
          "name": "_gravityBridge",
          "type": "address"
        },
        {
          "internalType": "contract IStakedTokenV2",
          "name": "_stkAAVE",
          "type": "address"
        },
        {
          "internalType": "contract ERC20",
          "name": "_AAVE",
          "type": "address"
        },
        {
          "internalType": "contract ERC20",
          "name": "_WETH",
          "type": "address"
        }
      ],
      "stateMutability": "nonpayable",
      "type": "constructor"
    },
    {
      "anonymous": false,
      "inputs": [
        {
          "indexed": false,
          "internalType": "uint256",
          "name": "feesInShares",
          "type": "uint256"
        }
      ],
      "name": "AccruedPerformanceFees",
      "type": "event"
    },
    {
      "anonymous": false,
      "inputs": [
        {
          "indexed": false,
          "internalType": "uint256",
          "name": "feesInShares",
          "type": "uint256"
        }
      ],
      "name": "AccruedPlatformFees",
      "type": "event"
    },
    {
      "anonymous": false,
      "inputs": [
        {
          "indexed": true,
          "internalType": "address",
          "name": "owner",
          "type": "address"
        },
        {
          "indexed": true,
          "internalType": "address",
          "name": "spender",
          "type": "address"
        },
        {
          "indexed": false,
          "internalType": "uint256",
          "name": "amount",
          "type": "uint256"
        }
      ],
      "name": "Approval",
      "type": "event"
    },
    {
      "anonymous": false,
      "inputs": [
        {
          "indexed": false,
          "internalType": "uint256",
          "name": "rewardsClaimed",
          "type": "uint256"
        }
      ],
      "name": "ClaimAndUnstake",
      "type": "event"
    },
    {
      "anonymous": false,
      "inputs": [
        {
          "indexed": true,
          "internalType": "address",
          "name": "caller",
          "type": "address"
        },
        {
          "indexed": true,
          "internalType": "address",
          "name": "owner",
          "type": "address"
        },
        {
          "indexed": true,
          "internalType": "address",
          "name": "token",
          "type": "address"
        },
        {
          "indexed": false,
          "internalType": "uint256",
          "name": "assets",
          "type": "uint256"
        },
        {
          "indexed": false,
          "internalType": "uint256",
          "name": "shares",
          "type": "uint256"
        }
      ],
      "name": "Deposit",
      "type": "event"
    },
    {
      "anonymous": false,
      "inputs": [
        {
          "indexed": false,
          "internalType": "uint256",
          "name": "oldLimit",
          "type": "uint256"
        },
        {
          "indexed": false,
          "internalType": "uint256",
          "name": "newLimit",
          "type": "uint256"
        }
      ],
      "name": "DepositLimitChanged",
      "type": "event"
    },
    {
      "anonymous": false,
      "inputs": [
        {
          "indexed": true,
          "internalType": "address",
          "name": "position",
          "type": "address"
        },
        {
          "indexed": false,
          "internalType": "uint256",
          "name": "assets",
          "type": "uint256"
        }
      ],
      "name": "DepositToAave",
      "type": "event"
    },
    {
      "anonymous": false,
      "inputs": [
        {
          "indexed": true,
          "internalType": "address",
          "name": "position",
          "type": "address"
        },
        {
          "indexed": false,
          "internalType": "uint256",
          "name": "assets",
          "type": "uint256"
        }
      ],
      "name": "EnterPosition",
      "type": "event"
    },
    {
      "anonymous": false,
      "inputs": [
        {
          "indexed": false,
          "internalType": "bytes32",
          "name": "oldFeesDistributor",
          "type": "bytes32"
        },
        {
          "indexed": false,
          "internalType": "bytes32",
          "name": "newFeesDistributor",
          "type": "bytes32"
        }
      ],
      "name": "FeesDistributorChanged",
      "type": "event"
    },
    {
      "anonymous": false,
      "inputs": [
        {
          "indexed": false,
          "internalType": "uint256",
          "name": "oldLimit",
          "type": "uint256"
        },
        {
          "indexed": false,
          "internalType": "uint256",
          "name": "newLimit",
          "type": "uint256"
        }
      ],
      "name": "LiquidityLimitChanged",
      "type": "event"
    },
    {
      "anonymous": false,
      "inputs": [
        {
          "indexed": true,
          "internalType": "address",
          "name": "previousOwner",
          "type": "address"
        },
        {
          "indexed": true,
          "internalType": "address",
          "name": "newOwner",
          "type": "address"
        }
      ],
      "name": "OwnershipTransferred",
      "type": "event"
    },
    {
      "anonymous": false,
      "inputs": [
        {
          "indexed": true,
          "internalType": "address",
          "name": "oldAsset",
          "type": "address"
        },
        {
          "indexed": true,
          "internalType": "address",
          "name": "newAsset",
          "type": "address"
        },
        {
          "indexed": false,
          "internalType": "uint256",
          "name": "assets",
          "type": "uint256"
        }
      ],
      "name": "Rebalance",
      "type": "event"
    },
    {
      "anonymous": false,
      "inputs": [
        {
          "indexed": true,
          "internalType": "address",
          "name": "token",
          "type": "address"
        },
        {
          "indexed": false,
          "internalType": "uint256",
          "name": "rewards",
          "type": "uint256"
        },
        {
          "indexed": false,
          "internalType": "uint256",
          "name": "assets",
          "type": "uint256"
        }
      ],
      "name": "Reinvest",
      "type": "event"
    },
    {
      "anonymous": false,
      "inputs": [
        {
          "indexed": false,
          "internalType": "bool",
          "name": "isShutdown",
          "type": "bool"
        },
        {
          "indexed": false,
          "internalType": "bool",
          "name": "exitPosition",
          "type": "bool"
        }
      ],
      "name": "Shutdown",
      "type": "event"
    },
    {
      "anonymous": false,
      "inputs": [
        {
          "indexed": true,
          "internalType": "address",
          "name": "token",
          "type": "address"
        },
        {
          "indexed": true,
          "internalType": "address",
          "name": "to",
          "type": "address"
        },
        {
          "indexed": false,
          "internalType": "uint256",
          "name": "amount",
          "type": "uint256"
        }
      ],
      "name": "Sweep",
      "type": "event"
    },
    {
      "anonymous": false,
      "inputs": [
        {
          "indexed": true,
          "internalType": "address",
          "name": "from",
          "type": "address"
        },
        {
          "indexed": true,
          "internalType": "address",
          "name": "to",
          "type": "address"
        },
        {
          "indexed": false,
          "internalType": "uint256",
          "name": "amount",
          "type": "uint256"
        }
      ],
      "name": "Transfer",
      "type": "event"
    },
    {
      "anonymous": false,
      "inputs": [
        {
          "indexed": false,
          "internalType": "uint112",
          "name": "platformFees",
          "type": "uint112"
        },
        {
          "indexed": false,
          "internalType": "uint112",
          "name": "performanceFees",
          "type": "uint112"
        }
      ],
      "name": "TransferFees",
      "type": "event"
    },
    {
      "anonymous": false,
      "inputs": [
        {
          "indexed": true,
          "internalType": "address",
          "name": "receiver",
          "type": "address"
        },
        {
          "indexed": true,
          "internalType": "address",
          "name": "owner",
          "type": "address"
        },
        {
          "indexed": true,
          "internalType": "address",
          "name": "token",
          "type": "address"
        },
        {
          "indexed": false,
          "internalType": "uint256",
          "name": "assets",
          "type": "uint256"
        },
        {
          "indexed": false,
          "internalType": "uint256",
          "name": "shares",
          "type": "uint256"
        }
      ],
      "name": "Withdraw",
      "type": "event"
    },
    {
      "anonymous": false,
      "inputs": [
        {
          "indexed": true,
          "internalType": "address",
          "name": "position",
          "type": "address"
        },
        {
          "indexed": false,
          "internalType": "uint256",
          "name": "assets",
          "type": "uint256"
        }
      ],
      "name": "WithdrawFromAave",
      "type": "event"
    },
    {
      "inputs": [],
      "name": "AAVE",
      "outputs": [
        {
          "internalType": "contract ERC20",
          "name": "",
          "type": "address"
        }
      ],
      "stateMutability": "view",
      "type": "function"
    },
    {
      "inputs": [],
      "name": "DOMAIN_SEPARATOR",
      "outputs": [
        {
          "internalType": "bytes32",
          "name": "",
          "type": "bytes32"
        }
      ],
      "stateMutability": "view",
      "type": "function"
    },
    {
      "inputs": [],
      "name": "PERMIT_TYPEHASH",
      "outputs": [
        {
          "internalType": "bytes32",
          "name": "",
          "type": "bytes32"
        }
      ],
      "stateMutability": "view",
      "type": "function"
    },
    {
      "inputs": [],
      "name": "WETH",
      "outputs": [
        {
          "internalType": "contract ERC20",
          "name": "",
          "type": "address"
        }
      ],
      "stateMutability": "view",
      "type": "function"
    },
    {
      "inputs": [],
      "name": "accrueFees",
      "outputs": [],
      "stateMutability": "nonpayable",
      "type": "function"
    },
    {
      "inputs": [],
      "name": "activeAssets",
      "outputs": [
        {
          "internalType": "uint256",
          "name": "",
          "type": "uint256"
        }
      ],
      "stateMutability": "view",
      "type": "function"
    },
    {
      "inputs": [
        {
          "internalType": "address",
          "name": "",
          "type": "address"
        },
        {
          "internalType": "address",
          "name": "",
          "type": "address"
        }
      ],
      "name": "allowance",
      "outputs": [
        {
          "internalType": "uint256",
          "name": "",
          "type": "uint256"
        }
      ],
      "stateMutability": "view",
      "type": "function"
    },
    {
      "inputs": [
        {
          "internalType": "address",
          "name": "spender",
          "type": "address"
        },
        {
          "internalType": "uint256",
          "name": "amount",
          "type": "uint256"
        }
      ],
      "name": "approve",
      "outputs": [
        {
          "internalType": "bool",
          "name": "",
          "type": "bool"
        }
      ],
      "stateMutability": "nonpayable",
      "type": "function"
    },
    {
      "inputs": [],
      "name": "asset",
      "outputs": [
        {
          "internalType": "contract ERC20",
          "name": "",
          "type": "address"
        }
      ],
      "stateMutability": "view",
      "type": "function"
    },
    {
      "inputs": [],
      "name": "assetAToken",
      "outputs": [
        {
          "internalType": "contract ERC20",
          "name": "",
          "type": "address"
        }
      ],
      "stateMutability": "view",
      "type": "function"
    },
    {
      "inputs": [],
      "name": "assetDecimals",
      "outputs": [
        {
          "internalType": "uint8",
          "name": "",
          "type": "uint8"
        }
      ],
      "stateMutability": "view",
      "type": "function"
    },
    {
      "inputs": [
        {
          "internalType": "address",
          "name": "",
          "type": "address"
        }
      ],
      "name": "balanceOf",
      "outputs": [
        {
          "internalType": "uint256",
          "name": "",
          "type": "uint256"
        }
      ],
      "stateMutability": "view",
      "type": "function"
    },
    {
      "inputs": [],
      "name": "claimAndUnstake",
      "outputs": [
        {
          "internalType": "uint256",
          "name": "claimed",
          "type": "uint256"
        }
      ],
      "stateMutability": "nonpayable",
      "type": "function"
    },
    {
      "inputs": [
        {
          "internalType": "uint256",
          "name": "shares",
          "type": "uint256"
        }
      ],
      "name": "convertToAssets",
      "outputs": [
        {
          "internalType": "uint256",
          "name": "",
          "type": "uint256"
        }
      ],
      "stateMutability": "view",
      "type": "function"
    },
    {
      "inputs": [
        {
          "internalType": "uint256",
          "name": "assets",
          "type": "uint256"
        }
      ],
      "name": "convertToShares",
      "outputs": [
        {
          "internalType": "uint256",
          "name": "",
          "type": "uint256"
        }
      ],
      "stateMutability": "view",
      "type": "function"
    },
    {
      "inputs": [
        {
          "internalType": "address",
          "name": "",
          "type": "address"
        }
      ],
      "name": "currentDepositIndex",
      "outputs": [
        {
          "internalType": "uint256",
          "name": "",
          "type": "uint256"
        }
      ],
      "stateMutability": "view",
      "type": "function"
    },
    {
      "inputs": [],
      "name": "curveRegistryExchange",
      "outputs": [
        {
          "internalType": "contract ICurveSwaps",
          "name": "",
          "type": "address"
        }
      ],
      "stateMutability": "view",
      "type": "function"
    },
    {
      "inputs": [],
      "name": "decimals",
      "outputs": [
        {
          "internalType": "uint8",
          "name": "",
          "type": "uint8"
        }
      ],
      "stateMutability": "view",
      "type": "function"
    },
    {
      "inputs": [
        {
          "internalType": "uint256",
          "name": "assets",
          "type": "uint256"
        },
        {
          "internalType": "address",
          "name": "receiver",
          "type": "address"
        }
      ],
      "name": "deposit",
      "outputs": [
        {
          "internalType": "uint256",
          "name": "shares",
          "type": "uint256"
        }
      ],
      "stateMutability": "nonpayable",
      "type": "function"
    },
    {
      "inputs": [],
      "name": "depositLimit",
      "outputs": [
        {
          "internalType": "uint256",
          "name": "",
          "type": "uint256"
        }
      ],
      "stateMutability": "view",
      "type": "function"
    },
    {
      "inputs": [],
      "name": "enterPosition",
      "outputs": [],
      "stateMutability": "nonpayable",
      "type": "function"
    },
    {
      "inputs": [],
      "name": "fees",
      "outputs": [
        {
          "internalType": "uint112",
          "name": "yield",
          "type": "uint112"
        },
        {
          "internalType": "uint112",
          "name": "lastActiveAssets",
          "type": "uint112"
        },
        {
          "internalType": "uint32",
          "name": "lastTimeAccruedPlatformFees",
          "type": "uint32"
        },
        {
          "internalType": "uint112",
          "name": "accruedPlatformFees",
          "type": "uint112"
        },
        {
          "internalType": "uint112",
          "name": "accruedPerformanceFees",
          "type": "uint112"
        }
      ],
      "stateMutability": "view",
      "type": "function"
    },
    {
      "inputs": [],
      "name": "feesDistributor",
      "outputs": [
        {
          "internalType": "bytes32",
          "name": "",
          "type": "bytes32"
        }
      ],
      "stateMutability": "view",
      "type": "function"
    },
    {
      "inputs": [
        {
          "internalType": "address",
          "name": "user",
          "type": "address"
        }
      ],
      "name": "getUserBalances",
      "outputs": [
        {
          "internalType": "uint256",
          "name": "userActiveShares",
          "type": "uint256"
        },
        {
          "internalType": "uint256",
          "name": "userInactiveShares",
          "type": "uint256"
        },
        {
          "internalType": "uint256",
          "name": "userActiveAssets",
          "type": "uint256"
        },
        {
          "internalType": "uint256",
          "name": "userInactiveAssets",
          "type": "uint256"
        }
      ],
      "stateMutability": "view",
      "type": "function"
    },
    {
      "inputs": [
        {
          "internalType": "address",
          "name": "user",
          "type": "address"
        }
      ],
      "name": "getUserDeposits",
      "outputs": [
        {
          "components": [
            {
              "internalType": "uint112",
              "name": "assets",
              "type": "uint112"
            },
            {
              "internalType": "uint112",
              "name": "shares",
              "type": "uint112"
            },
            {
              "internalType": "uint32",
              "name": "timeDeposited",
              "type": "uint32"
            }
          ],
          "internalType": "struct IAaveV2StablecoinCellar.UserDeposit[]",
          "name": "",
          "type": "tuple[]"
        }
      ],
      "stateMutability": "view",
      "type": "function"
    },
    {
      "inputs": [],
      "name": "gravityBridge",
      "outputs": [
        {
          "internalType": "contract IGravity",
          "name": "",
          "type": "address"
        }
      ],
      "stateMutability": "view",
      "type": "function"
    },
    {
      "inputs": [],
      "name": "inactiveAssets",
      "outputs": [
        {
          "internalType": "uint256",
          "name": "",
          "type": "uint256"
        }
      ],
      "stateMutability": "view",
      "type": "function"
    },
    {
      "inputs": [],
      "name": "incentivesController",
      "outputs": [
        {
          "internalType": "contract IAaveIncentivesController",
          "name": "",
          "type": "address"
        }
      ],
      "stateMutability": "view",
      "type": "function"
    },
    {
      "inputs": [],
      "name": "isShutdown",
      "outputs": [
        {
          "internalType": "bool",
          "name": "",
          "type": "bool"
        }
      ],
      "stateMutability": "view",
      "type": "function"
    },
    {
      "inputs": [
        {
          "internalType": "address",
          "name": "",
          "type": "address"
        }
      ],
      "name": "isTrusted",
      "outputs": [
        {
          "internalType": "bool",
          "name": "",
          "type": "bool"
        }
      ],
      "stateMutability": "view",
      "type": "function"
    },
    {
      "inputs": [],
      "name": "lastTimeEnteredPosition",
      "outputs": [
        {
          "internalType": "uint256",
          "name": "",
          "type": "uint256"
        }
      ],
      "stateMutability": "view",
      "type": "function"
    },
    {
      "inputs": [],
      "name": "lendingPool",
      "outputs": [
        {
          "internalType": "contract ILendingPool",
          "name": "",
          "type": "address"
        }
      ],
      "stateMutability": "view",
      "type": "function"
    },
    {
      "inputs": [],
      "name": "liquidityLimit",
      "outputs": [
        {
          "internalType": "uint256",
          "name": "",
          "type": "uint256"
        }
      ],
      "stateMutability": "view",
      "type": "function"
    },
    {
      "inputs": [
        {
          "internalType": "address",
          "name": "owner",
          "type": "address"
        }
      ],
      "name": "maxDeposit",
      "outputs": [
        {
          "internalType": "uint256",
          "name": "",
          "type": "uint256"
        }
      ],
      "stateMutability": "view",
      "type": "function"
    },
    {
      "inputs": [
        {
          "internalType": "address",
          "name": "owner",
          "type": "address"
        }
      ],
      "name": "maxMint",
      "outputs": [
        {
          "internalType": "uint256",
          "name": "",
          "type": "uint256"
        }
      ],
      "stateMutability": "view",
      "type": "function"
    },
    {
      "inputs": [
        {
          "internalType": "address",
          "name": "owner",
          "type": "address"
        }
      ],
      "name": "maxRedeem",
      "outputs": [
        {
          "internalType": "uint256",
          "name": "",
          "type": "uint256"
        }
      ],
      "stateMutability": "view",
      "type": "function"
    },
    {
      "inputs": [
        {
          "internalType": "address",
          "name": "owner",
          "type": "address"
        }
      ],
      "name": "maxWithdraw",
      "outputs": [
        {
          "internalType": "uint256",
          "name": "",
          "type": "uint256"
        }
      ],
      "stateMutability": "view",
      "type": "function"
    },
    {
      "inputs": [
        {
          "internalType": "uint256",
          "name": "shares",
          "type": "uint256"
        },
        {
          "internalType": "address",
          "name": "receiver",
          "type": "address"
        }
      ],
      "name": "mint",
      "outputs": [
        {
          "internalType": "uint256",
          "name": "assets",
          "type": "uint256"
        }
      ],
      "stateMutability": "nonpayable",
      "type": "function"
    },
    {
      "inputs": [],
      "name": "name",
      "outputs": [
        {
          "internalType": "string",
          "name": "",
          "type": "string"
        }
      ],
      "stateMutability": "view",
      "type": "function"
    },
    {
      "inputs": [
        {
          "internalType": "address",
          "name": "",
          "type": "address"
        }
      ],
      "name": "nonces",
      "outputs": [
        {
          "internalType": "uint256",
          "name": "",
          "type": "uint256"
        }
      ],
      "stateMutability": "view",
      "type": "function"
    },
    {
      "inputs": [],
      "name": "owner",
      "outputs": [
        {
          "internalType": "address",
          "name": "",
          "type": "address"
        }
      ],
      "stateMutability": "view",
      "type": "function"
    },
    {
      "inputs": [
        {
          "internalType": "address",
          "name": "owner",
          "type": "address"
        },
        {
          "internalType": "address",
          "name": "spender",
          "type": "address"
        },
        {
          "internalType": "uint256",
          "name": "value",
          "type": "uint256"
        },
        {
          "internalType": "uint256",
          "name": "deadline",
          "type": "uint256"
        },
        {
          "internalType": "uint8",
          "name": "v",
          "type": "uint8"
        },
        {
          "internalType": "bytes32",
          "name": "r",
          "type": "bytes32"
        },
        {
          "internalType": "bytes32",
          "name": "s",
          "type": "bytes32"
        }
      ],
      "name": "permit",
      "outputs": [],
      "stateMutability": "nonpayable",
      "type": "function"
    },
    {
      "inputs": [
        {
          "internalType": "uint256",
          "name": "assets",
          "type": "uint256"
        }
      ],
      "name": "previewDeposit",
      "outputs": [
        {
          "internalType": "uint256",
          "name": "",
          "type": "uint256"
        }
      ],
      "stateMutability": "view",
      "type": "function"
    },
    {
      "inputs": [
        {
          "internalType": "uint256",
          "name": "shares",
          "type": "uint256"
        }
      ],
      "name": "previewMint",
      "outputs": [
        {
          "internalType": "uint256",
          "name": "",
          "type": "uint256"
        }
      ],
      "stateMutability": "view",
      "type": "function"
    },
    {
      "inputs": [
        {
          "internalType": "uint256",
          "name": "shares",
          "type": "uint256"
        }
      ],
      "name": "previewRedeem",
      "outputs": [
        {
          "internalType": "uint256",
          "name": "",
          "type": "uint256"
        }
      ],
      "stateMutability": "view",
      "type": "function"
    },
    {
      "inputs": [
        {
          "internalType": "uint256",
          "name": "assets",
          "type": "uint256"
        }
      ],
      "name": "previewWithdraw",
      "outputs": [
        {
          "internalType": "uint256",
          "name": "",
          "type": "uint256"
        }
      ],
      "stateMutability": "view",
      "type": "function"
    },
    {
      "inputs": [
        {
          "internalType": "uint256",
          "name": "shares",
          "type": "uint256"
        },
        {
          "internalType": "address",
          "name": "receiver",
          "type": "address"
        },
        {
          "internalType": "address",
          "name": "owner",
          "type": "address"
        }
      ],
      "name": "redeem",
      "outputs": [
        {
          "internalType": "uint256",
          "name": "assets",
          "type": "uint256"
        }
      ],
      "stateMutability": "nonpayable",
      "type": "function"
    },
    {
      "inputs": [
        {
          "internalType": "uint256",
          "name": "minAssetsOut",
          "type": "uint256"
        }
      ],
      "name": "reinvest",
      "outputs": [],
      "stateMutability": "nonpayable",
      "type": "function"
    },
    {
      "inputs": [],
      "name": "renounceOwnership",
      "outputs": [],
      "stateMutability": "nonpayable",
      "type": "function"
    },
    {
      "inputs": [
        {
          "internalType": "uint256",
          "name": "limit",
          "type": "uint256"
        }
      ],
      "name": "setDepositLimit",
      "outputs": [],
      "stateMutability": "nonpayable",
      "type": "function"
    },
    {
      "inputs": [
        {
          "internalType": "bytes32",
          "name": "newFeesDistributor",
          "type": "bytes32"
        }
      ],
      "name": "setFeesDistributor",
      "outputs": [],
      "stateMutability": "nonpayable",
      "type": "function"
    },
    {
      "inputs": [
        {
          "internalType": "uint256",
          "name": "limit",
          "type": "uint256"
        }
      ],
      "name": "setLiquidityLimit",
      "outputs": [],
      "stateMutability": "nonpayable",
      "type": "function"
    },
    {
      "inputs": [
        {
          "internalType": "bool",
          "name": "shutdown",
          "type": "bool"
        },
        {
          "internalType": "bool",
          "name": "exitPosition",
          "type": "bool"
        }
      ],
      "name": "setShutdown",
      "outputs": [],
      "stateMutability": "nonpayable",
      "type": "function"
    },
    {
      "inputs": [
        {
          "internalType": "address",
          "name": "position",
          "type": "address"
        },
        {
          "internalType": "bool",
          "name": "trust",
          "type": "bool"
        }
      ],
      "name": "setTrust",
      "outputs": [],
      "stateMutability": "nonpayable",
      "type": "function"
    },
    {
      "inputs": [],
      "name": "stkAAVE",
      "outputs": [
        {
          "internalType": "contract IStakedTokenV2",
          "name": "",
          "type": "address"
        }
      ],
      "stateMutability": "view",
      "type": "function"
    },
    {
      "inputs": [],
      "name": "sushiswapRouter",
      "outputs": [
        {
          "internalType": "contract ISushiSwapRouter",
          "name": "",
          "type": "address"
        }
      ],
      "stateMutability": "view",
      "type": "function"
    },
    {
      "inputs": [
        {
          "internalType": "address",
          "name": "token",
          "type": "address"
        },
        {
          "internalType": "address",
          "name": "to",
          "type": "address"
        }
      ],
      "name": "sweep",
      "outputs": [],
      "stateMutability": "nonpayable",
      "type": "function"
    },
    {
      "inputs": [],
      "name": "symbol",
      "outputs": [
        {
          "internalType": "string",
          "name": "",
          "type": "string"
        }
      ],
      "stateMutability": "view",
      "type": "function"
    },
    {
      "inputs": [],
      "name": "totalAssets",
      "outputs": [
        {
          "internalType": "uint256",
          "name": "",
          "type": "uint256"
        }
      ],
      "stateMutability": "view",
      "type": "function"
    },
    {
      "inputs": [],
      "name": "totalSupply",
      "outputs": [
        {
          "internalType": "uint256",
          "name": "",
          "type": "uint256"
        }
      ],
      "stateMutability": "view",
      "type": "function"
    },
    {
      "inputs": [
        {
          "internalType": "address",
          "name": "to",
          "type": "address"
        },
        {
          "internalType": "uint256",
          "name": "amount",
          "type": "uint256"
        }
      ],
      "name": "transfer",
      "outputs": [
        {
          "internalType": "bool",
          "name": "",
          "type": "bool"
        }
      ],
      "stateMutability": "nonpayable",
      "type": "function"
    },
    {
      "inputs": [],
      "name": "transferFees",
      "outputs": [],
      "stateMutability": "nonpayable",
      "type": "function"
    },
    {
      "inputs": [
        {
          "internalType": "address",
          "name": "from",
          "type": "address"
        },
        {
          "internalType": "address",
          "name": "to",
          "type": "address"
        },
        {
          "internalType": "uint256",
          "name": "amount",
          "type": "uint256"
        }
      ],
      "name": "transferFrom",
      "outputs": [
        {
          "internalType": "bool",
          "name": "",
          "type": "bool"
        }
      ],
      "stateMutability": "nonpayable",
      "type": "function"
    },
    {
      "inputs": [
        {
          "internalType": "address",
          "name": "from",
          "type": "address"
        },
        {
          "internalType": "address",
          "name": "to",
          "type": "address"
        },
        {
          "internalType": "uint256",
          "name": "amount",
          "type": "uint256"
        },
        {
          "internalType": "bool",
          "name": "onlyActive",
          "type": "bool"
        }
      ],
      "name": "transferFrom",
      "outputs": [
        {
          "internalType": "bool",
          "name": "",
          "type": "bool"
        }
      ],
      "stateMutability": "nonpayable",
      "type": "function"
    },
    {
      "inputs": [
        {
          "internalType": "address",
          "name": "newOwner",
          "type": "address"
        }
      ],
      "name": "transferOwnership",
      "outputs": [],
      "stateMutability": "nonpayable",
      "type": "function"
    },
    {
      "inputs": [
        {
          "internalType": "address",
          "name": "",
          "type": "address"
        },
        {
          "internalType": "uint256",
          "name": "",
          "type": "uint256"
        }
      ],
      "name": "userDeposits",
      "outputs": [
        {
          "internalType": "uint112",
          "name": "assets",
          "type": "uint112"
        },
        {
          "internalType": "uint112",
          "name": "shares",
          "type": "uint112"
        },
        {
          "internalType": "uint32",
          "name": "timeDeposited",
          "type": "uint32"
        }
      ],
      "stateMutability": "view",
      "type": "function"
    },
    {
      "inputs": [
        {
          "internalType": "uint256",
          "name": "assets",
          "type": "uint256"
        },
        {
          "internalType": "address",
          "name": "receiver",
          "type": "address"
        },
        {
          "internalType": "address",
          "name": "owner",
          "type": "address"
        }
      ],
      "name": "withdraw",
      "outputs": [
        {
          "internalType": "uint256",
          "name": "shares",
          "type": "uint256"
        }
      ],
      "stateMutability": "nonpayable",
      "type": "function"
    }
  ],
  "bytecode": "0x6101e060405273b813554b423266bbd4c16c32fa383394868c1f55600f553480156200002a57600080fd5b50604051620057c8380380620057c88339810160408190526200004d9162000706565b6040518060600160405280602c81526020016200579c602c91396040518060400160405280600b81526020016a61617665322d434c522d5360a81b81525060128260009080519060200190620000a592919062000638565b508151620000bb90600190602085019062000638565b5060ff81166080524660a052620000d16200016f565b60c05250620000e491503390506200020b565b6001600160a01b0380891660e05287811661010052868116610120528581166101405284811661016052838116610180528281166101a0528181166101c05260108b905560118a90558b166000908152600b60205260409020805460ff19166001179055620001538b6200025d565b6200015e84620004a4565b505050505050505050505062000bdf565b60007f8b73c3c69bb8fe3d512ecc4cf759cc79239f7b179b0ffacaa9a75d522b39400f6000604051620001a3919062000831565b6040805191829003822060208301939093528101919091527fc89efdaa54c0f20c7adf612882df0950f5a951637e0307cdcb4c672f298b8bc660608201524660808201523060a082015260c00160405160208183030381529060405280519060200120905090565b600680546001600160a01b038381166001600160a01b0319831681179093556040519116919082907f8be0079c531659141344cd1fd0a4f28419497f9722a3daafe3b4186f6b6457e090600090a35050565b610120516040516335ea6a7560e01b81526001600160a01b03838116600483015260009216906335ea6a759060240161018060405180830381865afa158015620002ab573d6000803e3d6000fd5b505050506040513d601f19601f82011682018060405250810190620002d19190620008ff565b5050505097505050505050505060006001600160a01b0316816001600160a01b031614156200032357604051630a5c5e7d60e11b81526001600160a01b03831660048201526024015b60405180910390fd5b6000600860149054906101000a900460ff1690506000836001600160a01b031663313ce5676040518163ffffffff1660e01b8152600401602060405180830381865afa15801562000378573d6000803e3d6000fd5b505050506040513d601f19601f820116820180604052508101906200039e9190620009f6565b905060805160ff168160ff161115620003dc57608051604051630651982f60e11b815260ff808416600483015290911660248201526044016200031a565b60ff821615801590620003f557508060ff168260ff1614155b1562000457576000196011541462000429576200042582826011546200057560201b62002c77179092919060201c565b6011555b6000196010541462000457576200045382826010546200057560201b62002c77179092919060201c565b6010555b600780546001600160a01b039586166001600160a01b031991821617909155600880549490951660ff909216600160a01b02166001600160a81b0319909316929092179190911790915550565b6006546001600160a01b03163314620005005760405162461bcd60e51b815260206004820181905260248201527f4f776e61626c653a2063616c6c6572206973206e6f7420746865206f776e657260448201526064016200031a565b6001600160a01b038116620005675760405162461bcd60e51b815260206004820152602660248201527f4f776e61626c653a206e6577206f776e657220697320746865207a65726f206160448201526564647265737360d01b60648201526084016200031a565b62000572816200020b565b50565b60008160ff168360ff1614156200058e575082620005ee565b8160ff168360ff161015620005ca57620005a9838362000a2a565b620005b690600a62000b4d565b620005c2908562000b5e565b9050620005ee565b620005c284620005db848662000a2a565b620005e890600a62000b4d565b620005f5565b9392505050565b600062000603828462000b96565b156200061157600162000614565b60005b60ff1662000623838562000bad565b6200062f919062000bc4565b90505b92915050565b8280546200064690620007f4565b90600052602060002090601f0160209004810192826200066a5760008555620006b5565b82601f106200068557805160ff1916838001178555620006b5565b82800160010185558215620006b5579182015b82811115620006b557825182559160200191906001019062000698565b50620006c3929150620006c7565b5090565b5b80821115620006c35760008155600101620006c8565b6001600160a01b03811681146200057257600080fd5b80516200070181620006de565b919050565b60008060008060008060008060008060006101608c8e0312156200072957600080fd5b8b516200073681620006de565b809b505060208c0151995060408c0151985060608c01516200075881620006de565b60808d01519098506200076b81620006de565b60a08d01519097506200077e81620006de565b60c08d01519096506200079181620006de565b60e08d0151909550620007a481620006de565b6101008d0151909450620007b881620006de565b6101208d0151909350620007cc81620006de565b6101408d0151909250620007e081620006de565b809150509295989b509295989b9093969950565b600181811c908216806200080957607f821691505b602082108114156200082b57634e487b7160e01b600052602260045260246000fd5b50919050565b600080835481600182811c9150808316806200084e57607f831692505b60208084108214156200086f57634e487b7160e01b86526022600452602486fd5b8180156200088657600181146200089857620008c7565b60ff19861689528489019650620008c7565b60008a81526020902060005b86811015620008bf5781548b820152908501908301620008a4565b505084890196505b509498975050505050505050565b80516001600160801b03811681146200070157600080fd5b805160ff811681146200070157600080fd5b6000806000806000806000806000806000806101808d8f0312156200092357600080fd5b8c519b506200093560208e01620008d5565b9a506200094560408e01620008d5565b99506200095560608e01620008d5565b98506200096560808e01620008d5565b97506200097560a08e01620008d5565b965060c08d015164ffffffffff811681146200099057600080fd5b9550620009a060e08e01620006f4565b9450620009b16101008e01620006f4565b9350620009c26101208e01620006f4565b9250620009d36101408e01620006f4565b9150620009e46101608e01620008ed565b90509295989b509295989b509295989b565b60006020828403121562000a0957600080fd5b6200062f82620008ed565b634e487b7160e01b600052601160045260246000fd5b600060ff821660ff84168082101562000a475762000a4762000a14565b90039392505050565b600181815b8085111562000a9157816000190482111562000a755762000a7562000a14565b8085161562000a8357918102915b93841c939080029062000a55565b509250929050565b60008262000aaa5750600162000632565b8162000ab95750600062000632565b816001811462000ad2576002811462000add5762000afd565b600191505062000632565b60ff84111562000af15762000af162000a14565b50506001821b62000632565b5060208310610133831016604e8410600b841016171562000b22575081810a62000632565b62000b2e838362000a50565b806000190482111562000b455762000b4562000a14565b029392505050565b60006200062f60ff84168362000a99565b600081600019048311821515161562000b7b5762000b7b62000a14565b500290565b634e487b7160e01b600052601260045260246000fd5b60008262000ba85762000ba862000b80565b500690565b60008262000bbf5762000bbf62000b80565b500490565b6000821982111562000bda5762000bda62000a14565b500190565b60805160a05160c05160e05161010051610120516101405161016051610180516101a0516101c051614a5d62000d3f600039600081816107f50152611afd01526000818161059101528181611a0901528181611aa90152611b7c01526000818161046c0152818161198c0152612102015260008181610732015281816125ad015261260601526000818161081c015261207e01526000818161075901528181612dea01528181612f71015281816132ab01526133030152600081816109b701528181611b9e0152611bcf0152600081816107c601528181610da00152610ddf01526000610ff401526000610fc40152600081816104fa01528181610ada0152818161138a01528181611cac01528181611f6f01528181611fac015281816121e50152818161222c01528181612750015281816128f1015281816130a7015281816130ec015281816134d2015281816136f90152613b8b0152614a5d6000f3fe608060405234801561001057600080fd5b506004361061037c5760003560e01c806395d89b41116101d5578063bf86d69011610105578063d505accf116100a8578063d505accf14610938578063d905777e1461094b578063dd62ed3e14610974578063df05a52a1461099f578063e9240c2d146109b2578063ecf70858146109d9578063ef8b30f7146109e2578063f2fde38b146109f5578063f82d4d9b14610a0857600080fd5b8063bf86d690146108b0578063c17f6740146108bd578063c2d41601146108d0578063c2fbe7bc146108e4578063c63d75b6146108ec578063c6e6f592146108ff578063cab5923814610912578063ce96cb771461092557600080fd5b8063ad004e2011610178578063ad004e20146107e8578063ad5c4648146107f0578063af1df25514610817578063b3d7f6b91461083e578063b460af9414610851578063b8dc491b14610864578063ba08765214610877578063bb27280b1461088a578063bdc8144b1461089d57600080fd5b806395d89b411461068757806396d648791461068f5780639af1d35a146106b2578063a4da2d021461072d578063a59a997314610754578063a9059cbb1461077b578063abd3f6121461078e578063ac353510146107c157600080fd5b806338d52e0f116102b05780636f2293ab116102535780636f2293ab146105ec57806370a08231146105ff578063715018a61461061f57806372163715146106275780637ecebe001461063057806383b4918b146106505780638da5cb5b146106635780638e0bae7f1461066b57806394bf804d1461067457600080fd5b806338d52e0f1461053e5780633982aabd146105515780633dc6eabf14610571578063402d267d1461057957806348ccda3c1461058c5780634cdad506146105b35780636e553f65146105c65780636e85f183146105d957600080fd5b806318160ddd1161032357806318160ddd146104565780631c17b9461461045f5780631fc29c011461046757806323b872dd1461049b5780632a5bf6d2146104ae57806330adf81f146104ce578063313ce567146104f55780633644e5151461052e57806337a4e8341461053657600080fd5b806301e1d1141461038157806306fdde031461039c57806307a2d13a146103b157806308f43333146103c4578063095ea7b3146104035780630a28a47714610426578063148349381461043957806315f4c61114610441575b600080fd5b610389610a11565b6040519081526020015b60405180910390f35b6103a4610a32565b6040516103939190613e8b565b6103896103bf366004613ee0565b610ac0565b6103d76103d2366004613f0e565b610b10565b604080516001600160701b03948516815293909216602084015263ffffffff1690820152606001610393565b610416610411366004613f0e565b610b5f565b6040519015158152602001610393565b610389610434366004613ee0565b610bcc565b610389610bf8565b61045461044f366004613ff1565b610c6a565b005b61038960025481565b610389610edc565b61048e7f000000000000000000000000000000000000000000000000000000000000000081565b60405161039391906140fb565b6104166104a936600461410f565b610f0d565b6104c16104bc366004614150565b610f24565b604051610393919061416d565b6103897f6e71edae12b1b97f4d1f60370fef10105fa2faae0126114a169c64845d6126c981565b61051c7f000000000000000000000000000000000000000000000000000000000000000081565b60405160ff9091168152602001610393565b610389610fc0565b610454611016565b60075461048e906001600160a01b031681565b61038961055f366004614150565b600a6020526000908152604090205481565b610454611296565b610389610587366004614150565b611355565b61048e7f000000000000000000000000000000000000000000000000000000000000000081565b6103896105c1366004613ee0565b61140c565b6103896105d43660046141d8565b611417565b6104546105e7366004613ee0565b6114b0565b6104166105fa36600461421d565b611525565b61038961060d366004614150565b60036020526000908152604090205481565b610454611905565b61038960105481565b61038961063e366004614150565b60056020526000908152604090205481565b61045461065e366004613ee0565b611940565b61048e611d88565b610389600f5481565b6103896106823660046141d8565b611d97565b6103a4611e32565b61041661069d366004614150565b600b6020526000908152604090205460ff1681565b600d54600e546106ed916001600160701b0380821692600160701b808404831693600160e01b900463ffffffff169280831692919091041685565b604080516001600160701b039687168152948616602086015263ffffffff909316928401929092528316606083015291909116608082015260a001610393565b61048e7f000000000000000000000000000000000000000000000000000000000000000081565b61048e7f000000000000000000000000000000000000000000000000000000000000000081565b610416610789366004613f0e565b611e3f565b6107a161079c366004614150565b611e4e565b604080519485526020850193909352918301526060820152608001610393565b61048e7f000000000000000000000000000000000000000000000000000000000000000081565b610389611fe6565b61048e7f000000000000000000000000000000000000000000000000000000000000000081565b61048e7f000000000000000000000000000000000000000000000000000000000000000081565b61038961084c366004613ee0565b6121b0565b61038961085f36600461426e565b612214565b6104546108723660046142b0565b61225d565b61038961088536600461426e565b6123c0565b6104546108983660046142de565b6123d5565b6104546108ab366004613ee0565b612476565b6012546104169060ff1681565b60085461048e906001600160a01b031681565b60085461051c90600160a01b900460ff1681565b6104546124e3565b6103896108fa366004614150565b6126c8565b61038961090d366004613ee0565b612738565b610454610920366004614311565b61277f565b610389610933366004614150565b61280e565b61045461094636600461433e565b612920565b610389610959366004614150565b6001600160a01b031660009081526003602052604090205490565b6103896109823660046142b0565b600460209081526000928352604080842090915290825290205481565b6104546109ad366004613ee0565b612b5f565b61048e7f000000000000000000000000000000000000000000000000000000000000000081565b61038960115481565b6103896109f0366004613ee0565b612bcc565b610454610a03366004614150565b612bd7565b610389600c5481565b6000610a1b610bf8565b610a23610edc565b610a2d91906143c5565b905090565b60008054610a3f906143dd565b80601f0160208091040260200160405190810160405280929190818152602001828054610a6b906143dd565b8015610ab85780601f10610a8d57610100808354040283529160200191610ab8565b820191906000526020600020905b815481529060010190602001808311610a9b57829003601f168201915b505050505081565b600080610acc83612ce0565b600854909150610b099082907f000000000000000000000000000000000000000000000000000000000000000090600160a01b900460ff16612c77565b9392505050565b60096020528160005260406000208181548110610b2c57600080fd5b6000918252602090912001546001600160701b038082169350600160701b8204169150600160e01b900463ffffffff1683565b3360008181526004602090815260408083206001600160a01b038716808552925280832085905551919290917f8c5be1e5ebec7d5bd14f71427d1e84f3dd0314c0f7b2291e5b200ac8c7c3b92590610bba9086815260200190565b60405180910390a35060015b92915050565b6002546000908015610bf157610bec81610be4610a11565b859190612d0b565b610b09565b5090919050565b6007546040516370a0823160e01b81526000916001600160a01b0316906370a0823190610c299030906004016140fb565b602060405180830381865afa158015610c46573d6000803e3d6000fd5b505050506040513d601f19601f82011682018060405250810190610a2d9190614418565b33610c73611d88565b6001600160a01b031614610ca25760405162461bcd60e51b8152600401610c9990614431565b60405180910390fd5b60125460ff1615610cc657604051632f22819760e11b815260040160405180910390fd5b6000805b8060081480610d025750600085610ce28360016143c5565b60098110610cf257610cf2614466565b60200201516001600160a01b0316145b15610d2557848160098110610d1957610d19614466565b60200201519150610d37565b610d306002826143c5565b9050610cca565b506007546001600160a01b0382811691161415610d69578060405163a337612b60e01b8152600401610c9991906140fb565b600754610d81906001600160a01b0316600019612d39565b6000610d8b610bf8565b600754909150610dc5906001600160a01b03167f000000000000000000000000000000000000000000000000000000000000000083612ed9565b604051630d4f290960e21b81526000906001600160a01b037f0000000000000000000000000000000000000000000000000000000000000000169063353ca42490610e1a908990899087908a9060040161447c565b6020604051808303816000875af1158015610e39573d6000803e3d6000fd5b505050506040513d601f19601f82011682018060405250810190610e5d9190614418565b6007549091506001600160a01b0316610e7584612f57565b600754610e8b906001600160a01b0316836131bd565b42600c556040518281526001600160a01b0380861691908316907fb0850b8e0f9e8315dde3c9f9f31138283e6bbe16cd29e8552eb1dcdf9fac9e3b906020015b60405180910390a350505050505050565b6008546040516370a0823160e01b81526000916001600160a01b0316906370a0823190610c299030906004016140fb565b6000610f1c8484846000611525565b949350505050565b6001600160a01b0381166000908152600960209081526040808320805482518185028101850190935280835260609492939192909184015b82821015610fb557600084815260209081902060408051606081018252918501546001600160701b038082168452600160701b82041683850152600160e01b900463ffffffff1690820152825260019092019101610f5c565b505050509050919050565b60007f00000000000000000000000000000000000000000000000000000000000000004614610ff157610a2d6133aa565b507f000000000000000000000000000000000000000000000000000000000000000090565b6000611020613444565b600d54909150600160701b90046001600160701b031680821115611088576110488183614518565b600d80546000906110639084906001600160701b031661452f565b92506101000a8154816001600160701b0302191690836001600160701b031602179055505b600d546000906110a590600160e01b900463ffffffff1642614518565b905060006301e133806127106064846110bc613444565b6110c6919061455a565b6110d0919061455a565b6110da919061458f565b6110e4919061458f565b905060006110f1826134fc565b600d80546001600160e01b0316600160e01b4263ffffffff1602179055905061111a3082613529565b600d546001600160701b03166000611137826103e8612710613583565b90506000611144826134fc565b600d80546001600160701b031916905590506111603082613529565b600e805485919060009061117e9084906001600160701b031661452f565b92506101000a8154816001600160701b0302191690836001600160701b0316021790555080600d600101600e8282829054906101000a90046001600160701b03166111c9919061452f565b92506101000a8154816001600160701b0302191690836001600160701b031602179055507fbb0dab1b2fba411c08a912a26b307680de2fcebcfa94469607a1a2ca6a5d8bf48460405161121e91815260200190565b60405180910390a16040518181527f87ddcf7d00014b95f4de1ab15232c30192eabc2849f9cb6c677a5a79bf74e9ab9060200160405180910390a1505050505050611267613444565b600d80546001600160701b0392909216600160701b02600160701b600160e01b03199092169190911790555050565b3361129f611d88565b6001600160a01b0316146112c55760405162461bcd60e51b8152600401610c9990614431565b60125460ff16156112e957604051632f22819760e11b815260040160405180910390fd5b60006112f3610bf8565b60075490915061130c906001600160a01b0316826131bd565b42600c556007546040518281526001600160a01b03909116907fb6f4b9255ee989b1844a8e6b7da8906b81200c38f7b3f4f1ac31e9a241c757509060200160405180910390a250565b60125460009060ff161561136b57506000919050565b60001960115414156113ca576008546113ae90600160a01b900460ff167f00000000000000000000000000000000000000000000000000000000000000006145a3565b6113b990600a6146aa565b610bc6906001600160701b0361458f565b6001600160a01b0382166000908152600360205260408120546113ec9061140c565b905080601154116113fe576000610b09565b80601154610b099190614518565b6000610bc682610ac0565b6007546040516370a0823160e01b815260009182916001600160a01b03909116906370a082319061144c9033906004016140fb565b602060405180830381865afa158015611469573d6000803e3d6000fd5b505050506040513d601f19601f8201168201806040525081019061148d9190614418565b90508084111561149b578093505b6114a7846000856135a2565b95945050505050565b336114b9611d88565b6001600160a01b0316146114df5760405162461bcd60e51b8152600401610c9990614431565b600f80549082905560408051828152602081018490527f513ac19cbbaaad4e450c732ed37635178b7d83bf8e84a940ffe7e052c9c7caa291015b60405180910390a15050565b60006001600160a01b0385163314611595576001600160a01b038516600090815260046020908152604080832033845290915290205460001981146115935761156e8482614518565b6001600160a01b03871660009081526004602090815260408083203384529091529020555b505b6001600160a01b038516600090815260036020526040812080548592906115bd908490614518565b90915550506001600160a01b038085166000908152600360209081526040808320805488019055928816825260098152828220600a9091529190205484905b825481101561189357600083828154811061161957611619614466565b60009182526020909120600c5491018054909250600160e01b900463ffffffff1610868015611646575080155b15611652575050611881565b8154600160701b90046001600160701b0316600061167086836137ef565b845490915060009061168c906001600160701b03168385612d0b565b905083156116a9578454600160701b600160e01b031685556116eb565b8454819086906000906116c69084906001600160701b03166146b9565b92506101000a8154816001600160701b0302191690836001600160701b031602179055505b845482908690600e9061170f908490600160701b90046001600160701b03166146b9565b92506101000a8154816001600160701b0302191690836001600160701b03160217905550600960008d6001600160a01b03166001600160a01b0316815260200190815260200160002060405180606001604052808661176e5783611771565b60005b6001600160701b03168152602001846001600160701b03168152602001866117a7578754600160e01b900463ffffffff166117aa565b60005b63ffffffff9081169091528254600181018455600093845260209384902083519101805494840151604090940151909216600160e01b026001600160e01b036001600160701b03948516600160701b026001600160e01b0319909616949092169390931793909317929092161790556118238288614518565b96508661187b5789611871578454600160701b90046001600160701b0316611855576118508660016143c5565b611857565b855b6001600160a01b038e166000908152600a60205260409020555b5050505050611893565b50505050505b8061188b816146e1565b9150506115fc565b5080156118bd5760405163a09b101160e01b81526004810182905260248101869052604401610c99565b856001600160a01b0316876001600160a01b0316600080516020614a31833981519152876040516118f091815260200190565b60405180910390a35060019695505050505050565b3361190e611d88565b6001600160a01b0316146119345760405162461bcd60e51b8152600401610c9990614431565b61193e60006137fe565b565b33611949611d88565b6001600160a01b03161461196f5760405162461bcd60e51b8152600401610c9990614431565b6040516301e9a69560e41b815230600482015260001960248201527f00000000000000000000000000000000000000000000000000000000000000006001600160a01b031690631e9a695090604401600060405180830381600087803b1580156119d857600080fd5b505af11580156119ec573d6000803e3d6000fd5b50506040516370a0823160e01b8152600092506001600160a01b037f00000000000000000000000000000000000000000000000000000000000000001691506370a0823190611a3f9030906004016140fb565b602060405180830381865afa158015611a5c573d6000803e3d6000fd5b505050506040513d601f19601f82011682018060405250810190611a809190614418565b6040805160038082526080820190925291925060009190602082016060803683370190505090507f000000000000000000000000000000000000000000000000000000000000000081600081518110611adb57611adb614466565b60200260200101906001600160a01b031690816001600160a01b0316815250507f000000000000000000000000000000000000000000000000000000000000000081600181518110611b2f57611b2f614466565b6001600160a01b039283166020918202929092010152600754825191169082906002908110611b6057611b60614466565b6001600160a01b039283166020918202929092010152611bc3907f0000000000000000000000000000000000000000000000000000000000000000167f000000000000000000000000000000000000000000000000000000000000000084612ed9565b60006001600160a01b037f0000000000000000000000000000000000000000000000000000000000000000166338ed173984868530611c0342603c6143c5565b6040518663ffffffff1660e01b8152600401611c23959493929190614740565b6000604051808303816000875af1158015611c42573d6000803e3d6000fd5b505050506040513d6000823e601f3d908101601f19168201604052611c6a919081019061477c565b905060008160018351611c7d9190614518565b81518110611c8d57611c8d614466565b60200260200101519050611cdb600860149054906101000a900460ff167f000000000000000000000000000000000000000000000000000000000000000083612c779092919063ffffffff16565b600d8054600090611cf69084906001600160701b031661452f565b82546001600160701b039182166101009390930a92830291909202199091161790555060125460ff16611d3957600754611d39906001600160a01b0316826131bd565b60075460408051868152602081018490526001600160a01b03909216917fc003f45bc224d116b6d079100d4ab57a5b9633244c47a5a92a176c5b79a85f28910160405180910390a25050505050565b6006546001600160a01b031690565b6007546040516370a0823160e01b81526000918291611e0f916001600160a01b0316906370a0823190611dce9033906004016140fb565b602060405180830381865afa158015611deb573d6000803e3d6000fd5b505050506040513d601f19601f820116820180604052508101906109f09190614418565b905080841115611e1d578093505b611e29600085856135a2565b50949350505050565b60018054610a3f906143dd565b6000610b093384846000611525565b6001600160a01b038116600090815260096020526040812081908190819081611e7e670de0b6b3a7640000612ce0565b6001600160a01b0388166000908152600a60205260409020549091505b8254811015611f63576000838281548110611eb857611eb8614466565b60009182526020909120600c5491018054909250600160e01b900463ffffffff161015611f19578054600160701b90046001600160701b0316611efb818a6143c5565b9850611f078185613850565b611f1190886143c5565b965050611f50565b8054611f3590600160701b90046001600160701b0316886143c5565b8154909750611f4d906001600160701b0316866143c5565b94505b5080611f5b816146e1565b915050611e9b565b50600854611f9e9085907f000000000000000000000000000000000000000000000000000000000000000090600160a01b900460ff16612c77565b600854909450611fdb9084907f000000000000000000000000000000000000000000000000000000000000000090600160a01b900460ff16612c77565b925050509193509193565b600033611ff1611d88565b6001600160a01b0316146120175760405162461bcd60e51b8152600401610c9990614431565b60408051600180825281830190925260009160208083019080368337505060085482519293506001600160a01b03169183915060009061205957612059614466565b6001600160a01b039283166020918202929092010152604051633111e7b360e01b81527f000000000000000000000000000000000000000000000000000000000000000090911690633111e7b3906120bb908490600019903090600401614822565b6020604051808303816000875af11580156120da573d6000803e3d6000fd5b505050506040513d601f19601f820116820180604052508101906120fe9190614418565b91507f00000000000000000000000000000000000000000000000000000000000000006001600160a01b031663787a08a66040518163ffffffff1660e01b8152600401600060405180830381600087803b15801561215b57600080fd5b505af115801561216f573d6000803e3d6000fd5b505050507f8ca0188d9770b383d1a7a2ddfe5e0c1f029084481a53697d6c51525c47a8d88e826040516121a491815260200190565b60405180910390a15090565b6002546000908181156121d5576121d06121c8613865565b859084612d0b565b6121d7565b835b600854909150610f1c9082907f000000000000000000000000000000000000000000000000000000000000000090600160a01b900460ff16612c77565b600854600090612250908590600160a01b900460ff167f0000000000000000000000000000000000000000000000000000000000000000612c77565b93506114a7848484613877565b33612266611d88565b6001600160a01b03161461228c5760405162461bcd60e51b8152600401610c9990614431565b6007546001600160a01b03838116911614806122b557506008546001600160a01b038381169116145b806122c857506001600160a01b03821630145b156122e857816040516339b8549160e01b8152600401610c9991906140fb565b6040516370a0823160e01b81526000906001600160a01b038416906370a08231906123179030906004016140fb565b602060405180830381865afa158015612334573d6000803e3d6000fd5b505050506040513d601f19601f820116820180604052508101906123589190614418565b905061236e6001600160a01b0384168383613c3b565b816001600160a01b0316836001600160a01b03167fed679328aebf74ede77ae09efcf36e90244f83643dadac1c2d9f0b21a46f6ab7836040516123b391815260200190565b60405180910390a3505050565b6000611e296123ce85612ce0565b8484613877565b336123de611d88565b6001600160a01b0316146124045760405162461bcd60e51b8152600401610c9990614431565b6012805460ff1916831580159190911790915582906124205750805b1561243d5760075461243d906001600160a01b0316600019612d39565b60408051831515815282151560208201527f7ac7d23f223201cd219bf262dee0820ebf6aa5ba682fbd5dd9f849bbefd053589101611519565b3361247f611d88565b6001600160a01b0316146124a55760405162461bcd60e51b8152600401610c9990614431565b601180549082905560408051828152602081018490527fcfb5a454b8aa7dc04ecb5bc1410b2a57969ca1d67f66d565196f60c6f99754049101611519565b336124ec611d88565b6001600160a01b0316146125125760405162461bcd60e51b8152600401610c9990614431565b6040516370a0823160e01b815260009030906370a08231906125389083906004016140fb565b602060405180830381865afa158015612555573d6000803e3d6000fd5b505050506040513d601f19601f820116820180604052508101906125799190614418565b905060006125868261140c565b90506125923083613cb4565b61259b81613d16565b6007546125d2906001600160a01b03167f000000000000000000000000000000000000000000000000000000000000000083612ed9565b600754600f54604051631ffbe7f960e01b81526001600160a01b0392831660048201526024810191909152604481018390527f000000000000000000000000000000000000000000000000000000000000000090911690631ffbe7f990606401600060405180830381600087803b15801561264c57600080fd5b505af1158015612660573d6000803e3d6000fd5b5050600e54604080516001600160701b038084168252600160701b90930490921660208301527f393c7eed3c13cd314ecf9287699a4c4737ef3422abf88199b0009cbdbc83e5c8935001905060405180910390a15050600e80546001600160e01b0319169055565b60125460009060ff16156126de57506000919050565b60001960115414156126f757610bc661090d6000611355565b6000612704601154612738565b6001600160a01b03841660009081526003602052604090205490915080821161272e576000610f1c565b610f1c8183614518565b600854600090612774908390600160a01b900460ff167f0000000000000000000000000000000000000000000000000000000000000000612c77565b9150610bc6826134fc565b33612788611d88565b6001600160a01b0316146127ae5760405162461bcd60e51b8152600401610c9990614431565b6001600160a01b0382166000908152600b60205260409020805460ff1916821580159182179092556127ed57506007546001600160a01b038381169116145b1561280a5760075461280a906001600160a01b0316600019612d39565b5050565b6001600160a01b03811660009081526009602052604081208180612839670de0b6b3a7640000612ce0565b6001600160a01b0386166000908152600a60205260409020549091505b83548110156128e557600084828154811061287357612873614466565b60009182526020909120600c5491018054909250600160e01b900463ffffffff16106128a95780546001600160701b03166128c5565b80546128c590600160701b90046001600160701b031684613850565b6128cf90856143c5565b93505080806128dd906146e1565b915050612856565b506008546114a79083907f000000000000000000000000000000000000000000000000000000000000000090600160a01b900460ff16612c77565b4284101561296a5760405162461bcd60e51b815260206004820152601760248201527614115493525517d11150511312539157d1561412549151604a1b6044820152606401610c99565b6000612974610fc0565b6001600160a01b0389811660008181526005602090815260409182902080546001810190915582517f6e71edae12b1b97f4d1f60370fef10105fa2faae0126114a169c64845d6126c98184015280840194909452938c166060840152608083018b905260a083019390935260c08083018a90528151808403909101815260e08301909152805192019190912061190160f01b6101008301526101028201929092526101228101919091526101420160408051601f198184030181528282528051602091820120600080855291840180845281905260ff88169284019290925260608301869052608083018590529092509060019060a0016020604051602081039080840390855afa158015612a8d573d6000803e3d6000fd5b5050604051601f1901519150506001600160a01b03811615801590612ac35750886001600160a01b0316816001600160a01b0316145b612b005760405162461bcd60e51b815260206004820152600e60248201526d24a72b20a624a22fa9a4a3a722a960911b6044820152606401610c99565b6001600160a01b0390811660009081526004602090815260408083208b8516808552908352928190208a905551898152919350918a16917f8c5be1e5ebec7d5bd14f71427d1e84f3dd0314c0f7b2291e5b200ac8c7c3b9259101610ecb565b33612b68611d88565b6001600160a01b031614612b8e5760405162461bcd60e51b8152600401610c9990614431565b601080549082905560408051828152602081018490527f1f21432dd7b8ead64d2e7c06a74baf13783b2d2f7153f099e2c4cabc3c5dbec69101611519565b6000610bc682612738565b33612be0611d88565b6001600160a01b031614612c065760405162461bcd60e51b8152600401610c9990614431565b6001600160a01b038116612c6b5760405162461bcd60e51b815260206004820152602660248201527f4f776e61626c653a206e6577206f776e657220697320746865207a65726f206160448201526564647265737360d01b6064820152608401610c99565b612c74816137fe565b50565b60008160ff168360ff161415612c8e575082610b09565b8160ff168360ff161015612cc257612ca683836145a3565b612cb190600a6146aa565b612cbb908561455a565b9050610b09565b612cbb84612cd084866145a3565b612cdb90600a6146aa565b613d49565b6000600254600014612d0757612d02612cf7613865565b600254849190613583565b610bc6565b5090565b828202811515841585830485141716612d2357600080fd5b6001826001830304018115150290509392505050565b6000612d43613444565b600d54909150600160701b90046001600160701b031680821115612dab57612d6b8183614518565b600d8054600090612d869084906001600160701b031661452f565b92506101000a8154816001600160701b0302191690836001600160701b031602179055505b6000612db5610edc565b1115612ea057604051631a4ca37b60e21b81526001600160a01b038581166004830152602482018590523060448301526000917f0000000000000000000000000000000000000000000000000000000000000000909116906369328dec906064016020604051808303816000875af1158015612e35573d6000803e3d6000fd5b505050506040513d601f19601f82011682018060405250810190612e599190614418565b9050846001600160a01b03167f6407790cdabc5d219eaf901091d6beccc475533065c2fbd374c8a32b1c66795882604051612e9691815260200190565b60405180910390a2505b612ea8613444565b600d80546001600160701b0392909216600160701b02600160701b600160e01b031990921691909117905550505050565b600060405163095ea7b360e01b81526001600160a01b03841660048201528260248201526000806044836000895af1915050612f1481613d7b565b612f515760405162461bcd60e51b815260206004820152600e60248201526d1054141493d59157d1905253115160921b6044820152606401610c99565b50505050565b6040516335ea6a7560e01b81526000906001600160a01b037f000000000000000000000000000000000000000000000000000000000000000016906335ea6a7590612fa69085906004016140fb565b61018060405180830381865afa158015612fc4573d6000803e3d6000fd5b505050506040513d601f19601f82011682018060405250810190612fe89190614882565b5050505097505050505050505060006001600160a01b0316816001600160a01b0316141561302b5781604051630a5c5e7d60e11b8152600401610c9991906140fb565b6000600860149054906101000a900460ff1690506000836001600160a01b031663313ce5676040518163ffffffff1660e01b8152600401602060405180830381865afa15801561307f573d6000803e3d6000fd5b505050506040513d601f19601f820116820180604052508101906130a39190614963565b90507f000000000000000000000000000000000000000000000000000000000000000060ff168160ff16111561311957604051630651982f60e11b815260ff80831660048301527f0000000000000000000000000000000000000000000000000000000000000000166024820152604401610c99565b60ff82161580159061313157508060ff168260ff1614155b1561317057600019601154146131535760115461314f908383612c77565b6011555b600019601054146131705760105461316c908383612c77565b6010555b600780546001600160a01b039586166001600160a01b031991821617909155600880549490951660ff909216600160a01b02166001600160a81b0319909316929092179190911790915550565b60006131c7613444565b600d54909150600160701b90046001600160701b03168082111561322f576131ef8183614518565b600d805460009061320a9084906001600160701b031661452f565b92506101000a8154816001600160701b0302191690836001600160701b031602179055505b6001600160a01b0384166000908152600b602052604090205460ff1661326a57836040516386433f2b60e01b8152600401610c9991906140fb565b600d54600160e01b900463ffffffff1661329c57600d80546001600160e01b0316600160e01b4263ffffffff16021790555b6132d06001600160a01b0385167f000000000000000000000000000000000000000000000000000000000000000085612ed9565b60405163e8eda9df60e01b81526001600160a01b03858116600483015260248201859052306044830152600060648301527f0000000000000000000000000000000000000000000000000000000000000000169063e8eda9df90608401600060405180830381600087803b15801561334757600080fd5b505af115801561335b573d6000803e3d6000fd5b50505050836001600160a01b03167f3b1270fa6f77c9af94834571cf5274944e8712de6cebea9ec3d8b3452c0533088460405161339a91815260200190565b60405180910390a2612ea8613444565b60007f8b73c3c69bb8fe3d512ecc4cf759cc79239f7b179b0ffacaa9a75d522b39400f60006040516133dc9190614980565b6040805191829003822060208301939093528101919091527fc89efdaa54c0f20c7adf612882df0950f5a951637e0307cdcb4c672f298b8bc660608201524660808201523060a082015260c00160405160208183030381529060405280519060200120905090565b6008546040516370a0823160e01b815260009182916001600160a01b03909116906370a08231906134799030906004016140fb565b602060405180830381865afa158015613496573d6000803e3d6000fd5b505050506040513d601f19601f820116820180604052508101906134ba9190614418565b6008549091506134f6908290600160a01b900460ff167f0000000000000000000000000000000000000000000000000000000000000000612c77565b91505090565b600080613507613865565b90508015806135165750600254155b610bf157600254610bec90849083613583565b806002600082825461353b91906143c5565b90915550506001600160a01b038216600081815260036020908152604080832080548601905551848152600080516020614a3183398151915291015b60405180910390a35050565b82820281151584158583048514171661359b57600080fd5b0492915050565b601254600090819060ff16156135cb57604051632f22819760e11b815260040160405180910390fd5b600084116135e4576135dc85612bcc565b9350836135f1565b6135ed846121b0565b9450845b50836136105760405163df46449f60e01b815260040160405180910390fd5b6000196011541415801561362b575061362883611355565b85115b1561364f576011546040516325423fdd60e21b8152600401610c9991815260200190565b600019601054141580156136755750601054613669610a11565b61367390876143c5565b115b156136995760105460405163cacbef1b60e01b8152600401610c9991815260200190565b6007546136b1906001600160a01b0316333088613dc2565b6136bb8385613529565b6001600160a01b0383166000908152600960205260409081902081516060810190925260085490918291819061371d908a90600160a01b900460ff167f0000000000000000000000000000000000000000000000000000000000000000612c77565b6001600160701b03908116825288811660208084019190915263ffffffff42811660409485015285546001810187556000968752958290208551960180548684015196860151909216600160e01b026001600160e01b03968516600160701b026001600160e01b0319909316979094169690961717939093161790925560075482518981529182018890526001600160a01b03908116929087169133917f5fe47ed6d4225326d3303476197d782ded5a4e9c14f479dc9ec4992af4e85d59910160405180910390a45093949293505050565b6000818310610bf15781610b09565b600680546001600160a01b038381166001600160a01b0319831681179093556040519116919082907f8be0079c531659141344cd1fd0a4f28419497f9722a3daafe3b4186f6b6457e090600090a35050565b6000610b098383670de0b6b3a7640000613583565b600061386f613e56565b610a23613444565b6001600160a01b03811660009081526003602052604081205481906138af5760405163df46449f60e01b815260040160405180910390fd5b846138cd5760405163332215e760e11b815260040160405180910390fd5b6001600160a01b038316600090815260096020526040812086826138f8670de0b6b3a7640000612ce0565b6001600160a01b0388166000908152600a60205260409020549091505b8354811015613afa57600084828154811061393257613932614466565b600091825260208220600c5491018054909350600160e01b900463ffffffff161090816139695782546001600160701b0316613985565b825461398590600160701b90046001600160701b031686613850565b9050600061399387836137ef565b84549091506000906139b690600160701b90046001600160701b03168385612d0b565b905083156139d3578454600160701b600160e01b03168555613a15565b8454829086906000906139f09084906001600160701b03166146b9565b92506101000a8154816001600160701b0302191690836001600160701b031602179055505b845481908690600e90613a39908490600160701b90046001600160701b03166146b9565b92506101000a8154816001600160701b0302191690836001600160701b03160217905550808a613a6991906143c5565b9950613a758289614518565b8954909850613a8690600190614518565b861480613a91575087155b15613ae2578454600160701b90046001600160701b0316613abc57613ab78660016143c5565b613abe565b855b6001600160a01b038e166000908152600a602052604090205550613afa9350505050565b50505050508080613af2906146e1565b915050613915565b50336001600160a01b03881614613b69576001600160a01b03871660009081526004602090815260408083203384529091529020546000198114613b6757613b428582614518565b6001600160a01b03891660009081526004602090815260408083203384529091529020555b505b613b738785613cb4565b613b7d828a614518565b600854909950613bba908a907f000000000000000000000000000000000000000000000000000000000000000090600160a01b900460ff16612c77565b9850613bc589613d16565b600754613bdc906001600160a01b0316898b613c3b565b600754604080518b8152602081018790526001600160a01b03928316928a811692908c16917ffbde797d201c681b91056529119e0b02407c7bb96a4a2c75c01fc9667232c8db910160405180910390a450969791965090945050505050565b600060405163a9059cbb60e01b81526001600160a01b03841660048201528260248201526000806044836000895af1915050613c7681613d7b565b612f515760405162461bcd60e51b815260206004820152600f60248201526e1514905394d1915497d19052531151608a1b6044820152606401610c99565b6001600160a01b03821660009081526003602052604081208054839290613cdc908490614518565b90915550506002805482900390556040518181526000906001600160a01b03841690600080516020614a3183398151915290602001613577565b6000613d20610bf8565b90508082111561280a5760075461280a906001600160a01b0316613d448385614518565b612d39565b6000613d558284614a1c565b15613d61576001613d64565b60005b60ff16613d71838561458f565b610b0991906143c5565b60003d82613d8d57806000803e806000fd5b8060208114613da5578015613db65760009250613dbb565b816000803e60005115159250613dbb565b600192505b5050919050565b60006040516323b872dd60e01b81526001600160a01b03851660048201526001600160a01b038416602482015282604482015260008060648360008a5af1915050613e0c81613d7b565b613e4f5760405162461bcd60e51b81526020600482015260146024820152731514905394d1915497d19493d357d1905253115160621b6044820152606401610c99565b5050505050565b6007546040516370a0823160e01b815260009182916001600160a01b03909116906370a08231906134799030906004016140fb565b600060208083528351808285015260005b81811015613eb857858101830151858201604001528201613e9c565b81811115613eca576000604083870101525b50601f01601f1916929092016040019392505050565b600060208284031215613ef257600080fd5b5035919050565b6001600160a01b0381168114612c7457600080fd5b60008060408385031215613f2157600080fd5b8235613f2c81613ef9565b946020939093013593505050565b634e487b7160e01b600052604160045260246000fd5b604051610120810167ffffffffffffffff81118282101715613f7457613f74613f3a565b60405290565b6040516080810167ffffffffffffffff81118282101715613f7457613f74613f3a565b6040516060810167ffffffffffffffff81118282101715613f7457613f74613f3a565b604051601f8201601f1916810167ffffffffffffffff81118282101715613fe957613fe9613f3a565b604052919050565b60008060006102c0848603121561400757600080fd5b601f858186011261401757600080fd5b61401f613f50565b8061012087018881111561403257600080fd5b875b8181101561405557803561404781613ef9565b845260209384019301614034565b508196508861013f89011261406957600080fd5b614071613f7a565b92508291506102a088018981111561408857600080fd5b808210156140eb57898583011261409f5760008081fd5b6140a7613f9d565b80606084018c8111156140ba5760008081fd5b845b818110156140d45780358452602093840193016140bc565b505085525060209093019260609190910190614088565b9699919850509435955050505050565b6001600160a01b0391909116815260200190565b60008060006060848603121561412457600080fd5b833561412f81613ef9565b9250602084013561413f81613ef9565b929592945050506040919091013590565b60006020828403121561416257600080fd5b8135610b0981613ef9565b602080825282518282018190526000919060409081850190868401855b828110156141cb57815180516001600160701b03908116865287820151168786015285015163ffffffff16858501526060909301929085019060010161418a565b5091979650505050505050565b600080604083850312156141eb57600080fd5b8235915060208301356141fd81613ef9565b809150509250929050565b8035801515811461421857600080fd5b919050565b6000806000806080858703121561423357600080fd5b843561423e81613ef9565b9350602085013561424e81613ef9565b92506040850135915061426360608601614208565b905092959194509250565b60008060006060848603121561428357600080fd5b83359250602084013561429581613ef9565b915060408401356142a581613ef9565b809150509250925092565b600080604083850312156142c357600080fd5b82356142ce81613ef9565b915060208301356141fd81613ef9565b600080604083850312156142f157600080fd5b6142fa83614208565b915061430860208401614208565b90509250929050565b6000806040838503121561432457600080fd5b82356142fa81613ef9565b60ff81168114612c7457600080fd5b600080600080600080600060e0888a03121561435957600080fd5b873561436481613ef9565b9650602088013561437481613ef9565b9550604088013594506060880135935060808801356143928161432f565b9699959850939692959460a0840135945060c09093013592915050565b634e487b7160e01b600052601160045260246000fd5b600082198211156143d8576143d86143af565b500190565b600181811c908216806143f157607f821691505b6020821081141561441257634e487b7160e01b600052602260045260246000fd5b50919050565b60006020828403121561442a57600080fd5b5051919050565b6020808252818101527f4f776e61626c653a2063616c6c6572206973206e6f7420746865206f776e6572604082015260600190565b634e487b7160e01b600052603260045260246000fd5b6102e08101818660005b60098110156144ae5781516001600160a01b0316835260209283019290910190600101614486565b50505061012082018560005b60048110156145015781518360005b60038110156144e85782518252602092830192909101906001016144c9565b50505060609290920191602091909101906001016144ba565b5050506102a08201939093526102c0015292915050565b60008282101561452a5761452a6143af565b500390565b60006001600160701b03828116848216808303821115614551576145516143af565b01949350505050565b6000816000190483118215151615614574576145746143af565b500290565b634e487b7160e01b600052601260045260246000fd5b60008261459e5761459e614579565b500490565b600060ff821660ff8416808210156145bd576145bd6143af565b90039392505050565b600181815b808511156146015781600019048211156145e7576145e76143af565b808516156145f457918102915b93841c93908002906145cb565b509250929050565b60008261461857506001610bc6565b8161462557506000610bc6565b816001811461463b576002811461464557614661565b6001915050610bc6565b60ff841115614656576146566143af565b50506001821b610bc6565b5060208310610133831016604e8410600b8410161715614684575081810a610bc6565b61468e83836145c6565b80600019048211156146a2576146a26143af565b029392505050565b6000610b0960ff841683614609565b60006001600160701b03838116908316818110156146d9576146d96143af565b039392505050565b60006000198214156146f5576146f56143af565b5060010190565b600081518084526020808501945080840160005b838110156147355781516001600160a01b031687529582019590820190600101614710565b509495945050505050565b85815284602082015260a06040820152600061475f60a08301866146fc565b6001600160a01b0394909416606083015250608001529392505050565b6000602080838503121561478f57600080fd5b825167ffffffffffffffff808211156147a757600080fd5b818501915085601f8301126147bb57600080fd5b8151818111156147cd576147cd613f3a565b8060051b91506147de848301613fc0565b81815291830184019184810190888411156147f857600080fd5b938501935b83851015614816578451825293850193908501906147fd565b98975050505050505050565b60608152600061483560608301866146fc565b6020830194909452506001600160a01b0391909116604090910152919050565b80516001600160801b038116811461421857600080fd5b805161421881613ef9565b80516142188161432f565b6000806000806000806000806000806000806101808d8f0312156148a557600080fd5b8c519b506148b560208e01614855565b9a506148c360408e01614855565b99506148d160608e01614855565b98506148df60808e01614855565b97506148ed60a08e01614855565b965060c08d015164ffffffffff8116811461490757600080fd5b955061491560e08e0161486c565b94506149246101008e0161486c565b93506149336101208e0161486c565b92506149426101408e0161486c565b91506149516101608e01614877565b90509295989b509295989b509295989b565b60006020828403121561497557600080fd5b8151610b098161432f565b600080835481600182811c91508083168061499c57607f831692505b60208084108214156149bc57634e487b7160e01b86526022600452602486fd5b8180156149d057600181146149e157614a0e565b60ff19861689528489019650614a0e565b60008a81526020902060005b86811015614a065781548b8201529085019083016149ed565b505084890196505b509498975050505050505050565b600082614a2b57614a2b614579565b50069056feddf252ad1be2c89b69c2b068fc378daa952ba7f163c4a11628f55a4df523b3efa164736f6c634300080b000a536f6d6d656c696572204161766520563220537461626c65636f696e2043656c6c6172204c5020546f6b656e",
  "linkReferences": {},
  "deployedLinkReferences": {}
}